:107800000C94343C0C94513C0C94513C0C94513CE1
:107810000C94513C0C94513C0C94513C0C94513CB4
:107820000C94513C0C94513C0C94513C0C94513CA4
:107830000C94513C0C94513C0C94513C0C94513C94
:107840000C94513C0C94513C0C94513C0C94513C84
:107850000C94513C0C94513C0C94513C0C94513C74
:107860000C94513C0C94513C11241FBECFEFD8E036
:10787000DEBFCDBF11E0A0E0B1E0E8EEFDE702C061
:1078800005900D92A230B107D9F712E0A2E0B1E065
:1078900001C01D92AD30B107E1F70E94093D0C9483
:1078A000F23E0C94003C9091C00095FFFCCF809379
:1078B000C6000895CF93982F959595959595959594
:1078C000905D8F70C82F8A3014F0C95A01C0C05D16
:1078D000892F0E94533C8C2FCF910C94533CCF9214
:1078E000DF92EF92FF92C12CD12C760112C08FEF64
:1078F000C81AD80AE80AF80A81E0C81682E1D80650
:107900008AE7E806F10428F0E0910201F091030112
:1079100009958091C00087FFEACF8091C600FF9053
:10792000EF90DF90CF900895CF930E946F3CC82FC7
:107930000E94533CC13614F0C75503C0C0330CF04D
:10794000C0538C2FCF910895CF930E94943CC82FA1
:107950000E94943C90E1C99F800D1124CF9108951D
:10796000CF93C82F03C00E946F3CC150C111FBCF01
:10797000CF910895CF93C82F0E946F3C803251F46D
:1079800084E10E94533C8C2F0E94533C80E1CF91B4
:107990000C94533C809104018F5F809304018530E7
:1079A00031F4E0910201F0910301CF910994CF915C
:1079B00008950E946F3C803231F484E10E94533C70
:1079C00080E10C94533C809104018F5F809304010B
:1079D000853029F4E0910201F091030109940895A2
:1079E00015C02D9A2FEF31EE94E021503040904099
:1079F000E1F700C000002D982FEF31EE94E0215008
:107A000030409040E1F700C0000081508111E9CF83
:107A100008958FEF93E00E94EA3E8F3F29F0E091B6
:107A20000201F0910301099514BE88E10FB6F894A4
:107A300080936000109260000FBE000090E1909370
:107A4000C4001092C5008093C10086E08093C200FC
:107A50005098589A259A81E00E94F03CDD24D394F6
:107A60000E946F3C803309F442C08133E1F40E94EC
:107A70006F3C803209F0A0C184E10E94533C81E454
:107A80000E94533C86E50E94533C82E50E94533C91
:107A900080E20E94533C89E40E94533C83E50E94AB
:107AA000533C80E580C1803439F40E946F3C8638B5
:107AB000F0F00E946F3C1BC08134A1F40E946F3C27
:107AC000803811F482E003C0813821F481E00E9403
:107AD000BA3CC6CF823811F480E1F9CF8839C9F5B4
:107AE00083E0F5CF823431F484E10E94B03C0E94FF
:107AF000D93CB6CF853411F485E0F7CF8035B9F3A2
:107B00008235A9F3813599F3853549F40E946F3C9C
:107B1000809306010E946F3C80930701E8CF863571
:107B2000D1F40E946F3C803389F40E946F3C0E9424
:107B30006F3C182F0E946F3C111102C08EE1C7CF1D
:107B4000113011F485E9C3CF8FE0C1CF83E00E94EB
:107B5000B03C80E0BCCF843609F0BFC00E946F3CCF
:107B6000809309020E946F3C8093080280910C026E
:107B70008E7F80930C020E946F3C853429F48091A3
:107B80000C02816080930C0208E011E0780105C0CE
:107B90000E946F3CF70181937F019701285031408B
:107BA00080910802909109022817390788F30E94F2
:107BB0006F3C803209F000C120910C0280910601D7
:107BC0009091070120FF21C0880F991F0FC0F999DC
:107BD000FECF809106019091070192BD81BDF80111
:107BE00021918F0120BDFA9AF99A0196909307018D
:107BF00080930601980128503140809108029091AD
:107C000009022817390718F366C020910701220FCF
:107C1000220B2D2120930B02880F991F90930701AF
:107C2000809306018091080280FF09C080910802BC
:107C30009091090201969093090280930802F894AA
:107C4000F999FECF1127E0910601F0910701C8E0F4
:107C5000D1E08091080290910902103091F40091D6
:107C6000570001700130D9F303E000935700E89505
:107C70000091570001700130D9F301E100935700E2
:107C8000E895099019900091570001700130D9F3DF
:107C900001E000935700E8951395103498F01127F0
:107CA0000091570001700130D9F305E000935700AF
:107CB000E8950091570001700130D9F301E100937C
:107CC0005700E8953296029709F0C7CF103011F0AF
:107CD0000296E5CF112484E166C0843709F053C0D1
:107CE0000E946F3C809309020E946F3C80930802BF
:107CF0008091060190910701880F991F90930701C9
:107D0000809306010E946F3C90910C02853411F41F
:107D1000916001C09E7F90930C020E946F3C803264
:107D200009F09ECE84E10E94533C00E010E023C0A5
:107D300080910C0280FF0BC0F999FECF8091060163
:107D40009091070192BD81BDF89A80B507C081FD71
:107D500007C0E0910601F091070184910E94533C15
:107D600080910601909107010196909307018093FD
:107D700006010F5F1F4F80910802909109020817BA
:107D80001907B0F212C08537A1F40E946F3C80320F
:107D900099F484E10E94533C8EE10E94533C85E9B2
:107DA0000E94533C8FE00E94533C80E10E94533C70
:107DB00057CE863709F4CDCE809104018F5F809332
:107DC0000401853009F04CCEE0910201F0910301ED
:107DD000099546CEF999FECF92BD81BDF89A9927B3
:087DE00080B50895F894FFCF6F
:027DE800800019
:040000030000780081
:00000001FF
